{
  "address": "0x5FbDB2315678afecb367f032d93F642f64180aa3",
  "abi": [
    {
      "anonymous": false,
      "inputs": [
        {
          "indexed": true,
          "internalType": "address",
          "name": "user",
          "type": "address"
        },
        {
          "indexed": false,
          "internalType": "uint256",
          "name": "amount",
          "type": "uint256"
        },
        {
          "indexed": true,
          "internalType": "address",
          "name": "to",
          "type": "address"
        }
      ],
      "name": "Deducted",
      "type": "event"
    },
    {
      "anonymous": false,
      "inputs": [
        {
          "indexed": true,
          "internalType": "address",
          "name": "user",
          "type": "address"
        },
        {
          "indexed": false,
          "internalType": "uint256",
          "name": "amount",
          "type": "uint256"
        }
      ],
      "name": "Staked",
      "type": "event"
    },
    {
      "anonymous": false,
      "inputs": [
        {
          "indexed": true,
          "internalType": "address",
          "name": "user",
          "type": "address"
        },
        {
          "indexed": false,
          "internalType": "uint256",
          "name": "amount",
          "type": "uint256"
        }
      ],
      "name": "Unstaked",
      "type": "event"
    },
    {
      "inputs": [],
      "name": "admin",
      "outputs": [
        {
          "internalType": "address",
          "name": "",
          "type": "address"
        }
      ],
      "stateMutability": "view",
      "type": "function"
    },
    {
      "inputs": [
        {
          "internalType": "address",
          "name": "user",
          "type": "address"
        },
        {
          "internalType": "uint256",
          "name": "amount",
          "type": "uint256"
        }
      ],
      "name": "deductStake",
      "outputs": [],
      "stateMutability": "nonpayable",
      "type": "function"
    },
    {
      "inputs": [
        {
          "internalType": "address",
          "name": "user",
          "type": "address"
        }
      ],
      "name": "getStake",
      "outputs": [
        {
          "internalType": "uint256",
          "name": "",
          "type": "uint256"
        }
      ],
      "stateMutability": "view",
      "type": "function"
    },
    {
      "inputs": [],
      "name": "minStakeAmount",
      "outputs": [
        {
          "internalType": "uint256",
          "name": "",
          "type": "uint256"
        }
      ],
      "stateMutability": "view",
      "type": "function"
    },
    {
      "inputs": [],
      "name": "stake",
      "outputs": [],
      "stateMutability": "payable",
      "type": "function"
    },
    {
      "inputs": [
        {
          "internalType": "address",
          "name": "",
          "type": "address"
        }
      ],
      "name": "stakes",
      "outputs": [
        {
          "internalType": "uint256",
          "name": "",
          "type": "uint256"
        }
      ],
      "stateMutability": "view",
      "type": "function"
    },
    {
      "inputs": [],
      "name": "unstake",
      "outputs": [],
      "stateMutability": "nonpayable",
      "type": "function"
    }
  ],
  "transactionHash": "0xbdf79a96aa4be1ddd2066e3e2ddc9b20158061a696051b798001df6f55cd9d29",
  "args": [],
  "numDeployments": 1,
  "solcInputHash": "eb88419c64527d0b894a7fcbe1dd53b8",
  "bytecode": "0x608060405267016345785d8a000060005573f39fd6e51aad88f6f4ce6ab8827279cfffb92266600160006101000a81548173ffffffffffffffffffffffffffffffffffffffff021916908373ffffffffffffffffffffffffffffffffffffffff160217905550348015607057600080fd5b50610aaf806100806000396000f3fe6080604052600436106100705760003560e01c806364bdcbbe1161004e57806364bdcbbe146100d35780637a766460146100fc578063f188768414610139578063f851a4401461016457610070565b806316934fc4146100755780632def6620146100b25780633a4b66f1146100c9575b600080fd5b34801561008157600080fd5b5061009c6004803603810190610097919061072a565b61018f565b6040516100a99190610770565b60405180910390f35b3480156100be57600080fd5b506100c76101a7565b005b6100d161030b565b005b3480156100df57600080fd5b506100fa60048036038101906100f591906107b7565b6103f6565b005b34801561010857600080fd5b50610123600480360381019061011e919061072a565b610652565b6040516101309190610770565b60405180910390f35b34801561014557600080fd5b5061014e61069b565b60405161015b9190610770565b60405180910390f35b34801561017057600080fd5b506101796106a1565b6040516101869190610806565b60405180910390f35b60026020528060005260406000206000915090505481565b6000600260003373ffffffffffffffffffffffffffffffffffffffff1673ffffffffffffffffffffffffffffffffffffffff1681526020019081526020016000205490506000811161022e576040517f08c379a00000000000000000000000000000000000000000000000000000000081526004016102259061087e565b60405180910390fd5b6000600260003373ffffffffffffffffffffffffffffffffffffffff1673ffffffffffffffffffffffffffffffffffffffff168152602001908152602001600020819055503373ffffffffffffffffffffffffffffffffffffffff166108fc829081150290604051600060405180830381858888f193505050501580156102b9573d6000803e3d6000fd5b503373ffffffffffffffffffffffffffffffffffffffff167f0f5bb82176feb1b5e747e28471aa92156a04d9f3ab9f45f28e2d704232b93f75826040516103009190610770565b60405180910390a250565b600054341015610350576040517f08c379a0000000000000000000000000000000000000000000000000000000008152600401610347906108ea565b60405180910390fd5b34600260003373ffffffffffffffffffffffffffffffffffffffff1673ffffffffffffffffffffffffffffffffffffffff168152602001908152602001600020600082825461039f9190610939565b925050819055503373ffffffffffffffffffffffffffffffffffffffff167f9e71bc8eea02a63969f509818f2dafb9254532904319f9dbda79b67bd34a5f3d346040516103ec9190610770565b60405180910390a2565b600160009054906101000a900473ffffffffffffffffffffffffffffffffffffffff1673ffffffffffffffffffffffffffffffffffffffff163373ffffffffffffffffffffffffffffffffffffffff1614610486576040517f08c379a000000000000000000000000000000000000000000000000000000000815260040161047d906109b9565b60405180910390fd5b80600260008473ffffffffffffffffffffffffffffffffffffffff1673ffffffffffffffffffffffffffffffffffffffff168152602001908152602001600020541015610508576040517f08c379a00000000000000000000000000000000000000000000000000000000081526004016104ff90610a25565b60405180910390fd5b80600260008473ffffffffffffffffffffffffffffffffffffffff1673ffffffffffffffffffffffffffffffffffffffff16815260200190815260200160002060008282546105579190610a45565b92505081905550600160009054906101000a900473ffffffffffffffffffffffffffffffffffffffff1673ffffffffffffffffffffffffffffffffffffffff166108fc829081150290604051600060405180830381858888f193505050501580156105c6573d6000803e3d6000fd5b50600160009054906101000a900473ffffffffffffffffffffffffffffffffffffffff1673ffffffffffffffffffffffffffffffffffffffff168273ffffffffffffffffffffffffffffffffffffffff167f70f1233c0678e55bd09d0a3215b8fe0ac7be7e487aa4011298edadf1e93569d4836040516106469190610770565b60405180910390a35050565b6000600260008373ffffffffffffffffffffffffffffffffffffffff1673ffffffffffffffffffffffffffffffffffffffff168152602001908152602001600020549050919050565b60005481565b600160009054906101000a900473ffffffffffffffffffffffffffffffffffffffff1681565b600080fd5b600073ffffffffffffffffffffffffffffffffffffffff82169050919050565b60006106f7826106cc565b9050919050565b610707816106ec565b811461071257600080fd5b50565b600081359050610724816106fe565b92915050565b6000602082840312156107405761073f6106c7565b5b600061074e84828501610715565b91505092915050565b6000819050919050565b61076a81610757565b82525050565b60006020820190506107856000830184610761565b92915050565b61079481610757565b811461079f57600080fd5b50565b6000813590506107b18161078b565b92915050565b600080604083850312156107ce576107cd6106c7565b5b60006107dc85828601610715565b92505060206107ed858286016107a2565b9150509250929050565b610800816106ec565b82525050565b600060208201905061081b60008301846107f7565b92915050565b600082825260208201905092915050565b7f4e6f2066756e647320746f20756e7374616b6500000000000000000000000000600082015250565b6000610868601383610821565b915061087382610832565b602082019050919050565b600060208201905081810360008301526108978161085b565b9050919050565b7f4d696e696d756d20302e31204554482072657175697265640000000000000000600082015250565b60006108d4601883610821565b91506108df8261089e565b602082019050919050565b60006020820190508181036000830152610903816108c7565b9050919050565b7f4e487b7100000000000000000000000000000000000000000000000000000000600052601160045260246000fd5b600061094482610757565b915061094f83610757565b92508282019050808211156109675761096661090a565b5b92915050565b7f4e6f742061646d696e0000000000000000000000000000000000000000000000600082015250565b60006109a3600983610821565b91506109ae8261096d565b602082019050919050565b600060208201905081810360008301526109d281610996565b9050919050565b7f496e73756666696369656e74207374616b65642062616c616e63650000000000600082015250565b6000610a0f601b83610821565b9150610a1a826109d9565b602082019050919050565b60006020820190508181036000830152610a3e81610a02565b9050919050565b6000610a5082610757565b9150610a5b83610757565b9250828203905081811115610a7357610a7261090a565b5b9291505056fea264697066735822122076b8a5bdfe37dcc84c98dea18f19842f1e8e903650b2f9747222c9752e3d870964736f6c634300081c0033",
  "devdoc": {
    "details": "Deployed on Hardhat; accepts random ETH values from 3.0 to 3.5 during testing",
    "kind": "dev",
    "methods": {
      "deductStake(address,uint256)": {
        "params": {
          "amount": "The amount to deduct",
          "user": "The address whose stake will be reduced"
        }
      },
      "getStake(address)": {
        "params": {
          "user": "The address to check"
        },
        "returns": {
          "_0": "The amount of ETH staked by that address"
        }
      }
    },
    "title": "StakingContract with Admin Control (Account #0 Admin: 0xf39Fd6e51aad88F6F4ce6aB8827279cffFb92266)",
    "version": 1
  },
  "userdoc": {
    "kind": "user",
    "methods": {
      "deductStake(address,uint256)": {
        "notice": "Admin can deduct from a user's stake and transfer to admin"
      },
      "getStake(address)": {
        "notice": "View a user’s staked ETH"
      },
      "stake()": {
        "notice": "Allow users to stake ETH (must be >= minStakeAmount)"
      },
      "unstake()": {
        "notice": "Allow users to unstake their full balance"
      }
    },
    "notice": "Allows non-RPKI nodes to stake native ETH and admin to deduct stake",
    "version": 1
  },
  "storageLayout": {
    "storage": [
      {
        "astId": 5,
        "contract": "contracts/StakingContract.sol:StakingContract",
        "label": "minStakeAmount",
        "offset": 0,
        "slot": "0",
        "type": "t_uint256"
      },
      {
        "astId": 8,
        "contract": "contracts/StakingContract.sol:StakingContract",
        "label": "admin",
        "offset": 0,
        "slot": "1",
        "type": "t_address"
      },
      {
        "astId": 12,
        "contract": "contracts/StakingContract.sol:StakingContract",
        "label": "stakes",
        "offset": 0,
        "slot": "2",
        "type": "t_mapping(t_address,t_uint256)"
      }
    ],
    "types": {
      "t_address": {
        "encoding": "inplace",
        "label": "address",
        "numberOfBytes": "20"
      },
      "t_mapping(t_address,t_uint256)": {
        "encoding": "mapping",
        "key": "t_address",
        "label": "mapping(address => uint256)",
        "numberOfBytes": "32",
        "value": "t_uint256"
      },
      "t_uint256": {
        "encoding": "inplace",
        "label": "uint256",
        "numberOfBytes": "32"
      }
    }
  }
}