{"contracts/StakingContract.sol":{"StakingContract":{"abi":[{"anonymous":false,"inputs":[{"indexed":true,"internalType":"address","name":"user","type":"address"},{"indexed":false,"internalType":"uint256","name":"amount","type":"uint256"}],"name":"Staked","type":"event"},{"anonymous":false,"inputs":[{"indexed":true,"internalType":"address","name":"user","type":"address"},{"indexed":false,"internalType":"uint256","name":"amount","type":"uint256"}],"name":"Unstaked","type":"event"},{"inputs":[{"internalType":"address","name":"user","type":"address"}],"name":"getStake","outputs":[{"internalType":"uint256","name":"","type":"uint256"}],"stateMutability":"view","type":"function"},{"inputs":[],"name":"minStakeAmount","outputs":[{"internalType":"uint256","name":"","type":"uint256"}],"stateMutability":"view","type":"function"},{"inputs":[],"name":"stake","outputs":[],"stateMutability":"payable","type":"function"},{"inputs":[{"internalType":"address","name":"","type":"address"}],"name":"stakes","outputs":[{"internalType":"uint256","name":"","type":"uint256"}],"stateMutability":"view","type":"function"},{"inputs":[],"name":"unstake","outputs":[],"stateMutability":"nonpayable","type":"function"}],"evm":{"bytecode":{"linkReferences":{},"object":"608060405267016345785d8a0000600055348015601b57600080fd5b506106118061002b6000396000f3fe60806040526004361061004a5760003560e01c806316934fc41461004f5780632def66201461008c5780633a4b66f1146100a35780637a766460146100ad578063f1887684146100ea575b600080fd5b34801561005b57600080fd5b506100766004803603810190610071919061042e565b610115565b6040516100839190610474565b60405180910390f35b34801561009857600080fd5b506100a161012d565b005b6100ab610291565b005b3480156100b957600080fd5b506100d460048036038101906100cf919061042e565b61037c565b6040516100e19190610474565b60405180910390f35b3480156100f657600080fd5b506100ff6103c5565b60405161010c9190610474565b60405180910390f35b60016020528060005260406000206000915090505481565b6000600160003373ffffffffffffffffffffffffffffffffffffffff1673ffffffffffffffffffffffffffffffffffffffff168152602001908152602001600020549050600081116101b4576040517f08c379a00000000000000000000000000000000000000000000000000000000081526004016101ab906104ec565b60405180910390fd5b6000600160003373ffffffffffffffffffffffffffffffffffffffff1673ffffffffffffffffffffffffffffffffffffffff168152602001908152602001600020819055503373ffffffffffffffffffffffffffffffffffffffff166108fc829081150290604051600060405180830381858888f1935050505015801561023f573d6000803e3d6000fd5b503373ffffffffffffffffffffffffffffffffffffffff167f0f5bb82176feb1b5e747e28471aa92156a04d9f3ab9f45f28e2d704232b93f75826040516102869190610474565b60405180910390a250565b6000543410156102d6576040517f08c379a00000000000000000000000000000000000000000000000000000000081526004016102cd90610558565b60405180910390fd5b34600160003373ffffffffffffffffffffffffffffffffffffffff1673ffffffffffffffffffffffffffffffffffffffff168152602001908152602001600020600082825461032591906105a7565b925050819055503373ffffffffffffffffffffffffffffffffffffffff167f9e71bc8eea02a63969f509818f2dafb9254532904319f9dbda79b67bd34a5f3d346040516103729190610474565b60405180910390a2565b6000600160008373ffffffffffffffffffffffffffffffffffffffff1673ffffffffffffffffffffffffffffffffffffffff168152602001908152602001600020549050919050565b60005481565b600080fd5b600073ffffffffffffffffffffffffffffffffffffffff82169050919050565b60006103fb826103d0565b9050919050565b61040b816103f0565b811461041657600080fd5b50565b60008135905061042881610402565b92915050565b600060208284031215610444576104436103cb565b5b600061045284828501610419565b91505092915050565b6000819050919050565b61046e8161045b565b82525050565b60006020820190506104896000830184610465565b92915050565b600082825260208201905092915050565b7f4e6f2066756e647320746f20756e7374616b6500000000000000000000000000600082015250565b60006104d660138361048f565b91506104e1826104a0565b602082019050919050565b60006020820190508181036000830152610505816104c9565b9050919050565b7f4d696e696d756d20302e31204554482072657175697265640000000000000000600082015250565b600061054260188361048f565b915061054d8261050c565b602082019050919050565b6000602082019050818103600083015261057181610535565b9050919050565b7f4e487b7100000000000000000000000000000000000000000000000000000000600052601160045260246000fd5b60006105b28261045b565b91506105bd8361045b565b92508282019050808211156105d5576105d4610578565b5b9291505056fea264697066735822122013566be03df9f699e95f9aee503c2c71269f16203e730887f7af3a61df99c93064736f6c634300081c0033","opcodes":"PUSH1 0x80 PUSH1 0x40 MSTORE PUSH8 0x16345785D8A0000 PUSH1 0x0 SSTORE CALLVALUE DUP1 ISZERO PUSH1 0x1B JUMPI PUSH1 0x0 DUP1 REVERT JUMPDEST POP PUSH2 0x611 DUP1 PUSH2 0x2B PUSH1 0x0 CODECOPY PUSH1 0x0 RETURN INVALID PUSH1 0x80 PUSH1 0x40 MSTORE PUSH1 0x4 CALLDATASIZE LT PUSH2 0x4A JUMPI PUSH1 0x0 CALLDATALOAD PUSH1 0xE0 SHR DUP1 PUSH4 0x16934FC4 EQ PUSH2 0x4F JUMPI DUP1 PUSH4 0x2DEF6620 EQ PUSH2 0x8C JUMPI DUP1 PUSH4 0x3A4B66F1 EQ PUSH2 0xA3 JUMPI DUP1 PUSH4 0x7A766460 EQ PUSH2 0xAD JUMPI DUP1 PUSH4 0xF1887684 EQ PUSH2 0xEA JUMPI JUMPDEST PUSH1 0x0 DUP1 REVERT JUMPDEST CALLVALUE DUP1 ISZERO PUSH2 0x5B JUMPI PUSH1 0x0 DUP1 REVERT JUMPDEST POP PUSH2 0x76 PUSH1 0x4 DUP1 CALLDATASIZE SUB DUP2 ADD SWAP1 PUSH2 0x71 SWAP2 SWAP1 PUSH2 0x42E JUMP JUMPDEST PUSH2 0x115 JUMP JUMPDEST PUSH1 0x40 MLOAD PUSH2 0x83 SWAP2 SWAP1 PUSH2 0x474 JUMP JUMPDEST PUSH1 0x40 MLOAD DUP1 SWAP2 SUB SWAP1 RETURN JUMPDEST CALLVALUE DUP1 ISZERO PUSH2 0x98 JUMPI PUSH1 0x0 DUP1 REVERT JUMPDEST POP PUSH2 0xA1 PUSH2 0x12D JUMP JUMPDEST STOP JUMPDEST PUSH2 0xAB PUSH2 0x291 JUMP JUMPDEST STOP JUMPDEST CALLVALUE DUP1 ISZERO PUSH2 0xB9 JUMPI PUSH1 0x0 DUP1 REVERT JUMPDEST POP PUSH2 0xD4 PUSH1 0x4 DUP1 CALLDATASIZE SUB DUP2 ADD SWAP1 PUSH2 0xCF SWAP2 SWAP1 PUSH2 0x42E JUMP JUMPDEST PUSH2 0x37C JUMP JUMPDEST PUSH1 0x40 MLOAD PUSH2 0xE1 SWAP2 SWAP1 PUSH2 0x474 JUMP JUMPDEST PUSH1 0x40 MLOAD DUP1 SWAP2 SUB SWAP1 RETURN JUMPDEST CALLVALUE DUP1 ISZERO PUSH2 0xF6 JUMPI PUSH1 0x0 DUP1 REVERT JUMPDEST POP PUSH2 0xFF PUSH2 0x3C5 JUMP JUMPDEST PUSH1 0x40 MLOAD PUSH2 0x10C SWAP2 SWAP1 PUSH2 0x474 JUMP JUMPDEST PUSH1 0x40 MLOAD DUP1 SWAP2 SUB SWAP1 RETURN JUMPDEST PUSH1 0x1 PUSH1 0x20 MSTORE DUP1 PUSH1 0x0 MSTORE PUSH1 0x40 PUSH1 0x0 KECCAK256 PUSH1 0x0 SWAP2 POP SWAP1 POP SLOAD DUP2 JUMP JUMPDEST PUSH1 0x0 PUSH1 0x1 PUSH1 0x0 CALLER PUSH20 0xFFFFFFFFFFFFFFFFFFFFFFFFFFFFFFFFFFFFFFFF AND PUSH20 0xFFFFFFFFFFFFFFFFFFFFFFFFFFFFFFFFFFFFFFFF AND DUP2 MSTORE PUSH1 0x20 ADD SWAP1 DUP2 MSTORE PUSH1 0x20 ADD PUSH1 0x0 KECCAK256 SLOAD SWAP1 POP PUSH1 0x0 DUP2 GT PUSH2 0x1B4 JUMPI PUSH1 0x40 MLOAD PUSH32 0x8C379A000000000000000000000000000000000000000000000000000000000 DUP2 MSTORE PUSH1 0x4 ADD PUSH2 0x1AB SWAP1 PUSH2 0x4EC JUMP JUMPDEST PUSH1 0x40 MLOAD DUP1 SWAP2 SUB SWAP1 REVERT JUMPDEST PUSH1 0x0 PUSH1 0x1 PUSH1 0x0 CALLER PUSH20 0xFFFFFFFFFFFFFFFFFFFFFFFFFFFFFFFFFFFFFFFF AND PUSH20 0xFFFFFFFFFFFFFFFFFFFFFFFFFFFFFFFFFFFFFFFF AND DUP2 MSTORE PUSH1 0x20 ADD SWAP1 DUP2 MSTORE PUSH1 0x20 ADD PUSH1 0x0 KECCAK256 DUP2 SWAP1 SSTORE POP CALLER PUSH20 0xFFFFFFFFFFFFFFFFFFFFFFFFFFFFFFFFFFFFFFFF AND PUSH2 0x8FC DUP3 SWAP1 DUP2 ISZERO MUL SWAP1 PUSH1 0x40 MLOAD PUSH1 0x0 PUSH1 0x40 MLOAD DUP1 DUP4 SUB DUP2 DUP6 DUP9 DUP9 CALL SWAP4 POP POP POP POP ISZERO DUP1 ISZERO PUSH2 0x23F JUMPI RETURNDATASIZE PUSH1 0x0 DUP1 RETURNDATACOPY RETURNDATASIZE PUSH1 0x0 REVERT JUMPDEST POP CALLER PUSH20 0xFFFFFFFFFFFFFFFFFFFFFFFFFFFFFFFFFFFFFFFF AND PUSH32 0xF5BB82176FEB1B5E747E28471AA92156A04D9F3AB9F45F28E2D704232B93F75 DUP3 PUSH1 0x40 MLOAD PUSH2 0x286 SWAP2 SWAP1 PUSH2 0x474 JUMP JUMPDEST PUSH1 0x40 MLOAD DUP1 SWAP2 SUB SWAP1 LOG2 POP JUMP JUMPDEST PUSH1 0x0 SLOAD CALLVALUE LT ISZERO PUSH2 0x2D6 JUMPI PUSH1 0x40 MLOAD PUSH32 0x8C379A000000000000000000000000000000000000000000000000000000000 DUP2 MSTORE PUSH1 0x4 ADD PUSH2 0x2CD SWAP1 PUSH2 0x558 JUMP JUMPDEST PUSH1 0x40 MLOAD DUP1 SWAP2 SUB SWAP1 REVERT JUMPDEST CALLVALUE PUSH1 0x1 PUSH1 0x0 CALLER PUSH20 0xFFFFFFFFFFFFFFFFFFFFFFFFFFFFFFFFFFFFFFFF AND PUSH20 0xFFFFFFFFFFFFFFFFFFFFFFFFFFFFFFFFFFFFFFFF AND DUP2 MSTORE PUSH1 0x20 ADD SWAP1 DUP2 MSTORE PUSH1 0x20 ADD PUSH1 0x0 KECCAK256 PUSH1 0x0 DUP3 DUP3 SLOAD PUSH2 0x325 SWAP2 SWAP1 PUSH2 0x5A7 JUMP JUMPDEST SWAP3 POP POP DUP2 SWAP1 SSTORE POP CALLER PUSH20 0xFFFFFFFFFFFFFFFFFFFFFFFFFFFFFFFFFFFFFFFF AND PUSH32 0x9E71BC8EEA02A63969F509818F2DAFB9254532904319F9DBDA79B67BD34A5F3D CALLVALUE PUSH1 0x40 MLOAD PUSH2 0x372 SWAP2 SWAP1 PUSH2 0x474 JUMP JUMPDEST PUSH1 0x40 MLOAD DUP1 SWAP2 SUB SWAP1 LOG2 JUMP JUMPDEST PUSH1 0x0 PUSH1 0x1 PUSH1 0x0 DUP4 PUSH20 0xFFFFFFFFFFFFFFFFFFFFFFFFFFFFFFFFFFFFFFFF AND PUSH20 0xFFFFFFFFFFFFFFFFFFFFFFFFFFFFFFFFFFFFFFFF AND DUP2 MSTORE PUSH1 0x20 ADD SWAP1 DUP2 MSTORE PUSH1 0x20 ADD PUSH1 0x0 KECCAK256 SLOAD SWAP1 POP SWAP2 SWAP1 POP JUMP JUMPDEST PUSH1 0x0 SLOAD DUP2 JUMP JUMPDEST PUSH1 0x0 DUP1 REVERT JUMPDEST PUSH1 0x0 PUSH20 0xFFFFFFFFFFFFFFFFFFFFFFFFFFFFFFFFFFFFFFFF DUP3 AND SWAP1 POP SWAP2 SWAP1 POP JUMP JUMPDEST PUSH1 0x0 PUSH2 0x3FB DUP3 PUSH2 0x3D0 JUMP JUMPDEST SWAP1 POP SWAP2 SWAP1 POP JUMP JUMPDEST PUSH2 0x40B DUP2 PUSH2 0x3F0 JUMP JUMPDEST DUP2 EQ PUSH2 0x416 JUMPI PUSH1 0x0 DUP1 REVERT JUMPDEST POP JUMP JUMPDEST PUSH1 0x0 DUP2 CALLDATALOAD SWAP1 POP PUSH2 0x428 DUP2 PUSH2 0x402 JUMP JUMPDEST SWAP3 SWAP2 POP POP JUMP JUMPDEST PUSH1 0x0 PUSH1 0x20 DUP3 DUP5 SUB SLT ISZERO PUSH2 0x444 JUMPI PUSH2 0x443 PUSH2 0x3CB JUMP JUMPDEST JUMPDEST PUSH1 0x0 PUSH2 0x452 DUP5 DUP3 DUP6 ADD PUSH2 0x419 JUMP JUMPDEST SWAP2 POP POP SWAP3 SWAP2 POP POP JUMP JUMPDEST PUSH1 0x0 DUP2 SWAP1 POP SWAP2 SWAP1 POP JUMP JUMPDEST PUSH2 0x46E DUP2 PUSH2 0x45B JUMP JUMPDEST DUP3 MSTORE POP POP JUMP JUMPDEST PUSH1 0x0 PUSH1 0x20 DUP3 ADD SWAP1 POP PUSH2 0x489 PUSH1 0x0 DUP4 ADD DUP5 PUSH2 0x465 JUMP JUMPDEST SWAP3 SWAP2 POP POP JUMP JUMPDEST PUSH1 0x0 DUP3 DUP3 MSTORE PUSH1 0x20 DUP3 ADD SWAP1 POP SWAP3 SWAP2 POP POP JUMP JUMPDEST PUSH32 0x4E6F2066756E647320746F20756E7374616B6500000000000000000000000000 PUSH1 0x0 DUP3 ADD MSTORE POP JUMP JUMPDEST PUSH1 0x0 PUSH2 0x4D6 PUSH1 0x13 DUP4 PUSH2 0x48F JUMP JUMPDEST SWAP2 POP PUSH2 0x4E1 DUP3 PUSH2 0x4A0 JUMP JUMPDEST PUSH1 0x20 DUP3 ADD SWAP1 POP SWAP2 SWAP1 POP JUMP JUMPDEST PUSH1 0x0 PUSH1 0x20 DUP3 ADD SWAP1 POP DUP2 DUP2 SUB PUSH1 0x0 DUP4 ADD MSTORE PUSH2 0x505 DUP2 PUSH2 0x4C9 JUMP JUMPDEST SWAP1 POP SWAP2 SWAP1 POP JUMP JUMPDEST PUSH32 0x4D696E696D756D20302E31204554482072657175697265640000000000000000 PUSH1 0x0 DUP3 ADD MSTORE POP JUMP JUMPDEST PUSH1 0x0 PUSH2 0x542 PUSH1 0x18 DUP4 PUSH2 0x48F JUMP JUMPDEST SWAP2 POP PUSH2 0x54D DUP3 PUSH2 0x50C JUMP JUMPDEST PUSH1 0x20 DUP3 ADD SWAP1 POP SWAP2 SWAP1 POP JUMP JUMPDEST PUSH1 0x0 PUSH1 0x20 DUP3 ADD SWAP1 POP DUP2 DUP2 SUB PUSH1 0x0 DUP4 ADD MSTORE PUSH2 0x571 DUP2 PUSH2 0x535 JUMP JUMPDEST SWAP1 POP SWAP2 SWAP1 POP JUMP JUMPDEST PUSH32 0x4E487B7100000000000000000000000000000000000000000000000000000000 PUSH1 0x0 MSTORE PUSH1 0x11 PUSH1 0x4 MSTORE PUSH1 0x24 PUSH1 0x0 REVERT JUMPDEST PUSH1 0x0 PUSH2 0x5B2 DUP3 PUSH2 0x45B JUMP JUMPDEST SWAP2 POP PUSH2 0x5BD DUP4 PUSH2 0x45B JUMP JUMPDEST SWAP3 POP DUP3 DUP3 ADD SWAP1 POP DUP1 DUP3 GT ISZERO PUSH2 0x5D5 JUMPI PUSH2 0x5D4 PUSH2 0x578 JUMP JUMPDEST JUMPDEST SWAP3 SWAP2 POP POP JUMP INVALID LOG2 PUSH5 0x6970667358 0x22 SLT KECCAK256 SGT JUMP PUSH12 0xE03DF9F699E95F9AEE503C2C PUSH18 0x269F16203E730887F7AF3A61DF99C9306473 PUSH16 0x6C634300081C00330000000000000000 "},"methodIdentifiers":{"getStake(address)":"7a766460","minStakeAmount()":"f1887684","stake()":"3a4b66f1","stakes(address)":"16934fc4","unstake()":"2def6620"}}}}}